{
  "_format": "hh3-artifact-1",
  "contractName": "Bank",
  "sourceName": "contracts/Bank.sol",
  "abi": [
    {
      "inputs": [],
      "name": "CannotBeZero",
      "type": "error"
    },
    {
      "inputs": [],
      "name": "NotEnoughFunds",
      "type": "error"
    },
    {
      "inputs": [],
      "name": "TransferFailed",
      "type": "error"
    },
    {
      "anonymous": false,
      "inputs": [
        {
          "indexed": true,
          "internalType": "address",
          "name": "account",
          "type": "address"
        },
        {
          "indexed": false,
          "internalType": "uint256",
          "name": "amount",
          "type": "uint256"
        }
      ],
      "name": "etherDeposited",
      "type": "event"
    },
    {
      "anonymous": false,
      "inputs": [
        {
          "indexed": true,
          "internalType": "address",
          "name": "account",
          "type": "address"
        },
        {
          "indexed": false,
          "internalType": "uint256",
          "name": "amount",
          "type": "uint256"
        }
      ],
      "name": "etherWithdrawn",
      "type": "event"
    },
    {
      "inputs": [],
      "name": "deposit",
      "outputs": [],
      "stateMutability": "payable",
      "type": "function"
    },
    {
      "inputs": [
        {
          "internalType": "address",
          "name": "_user",
          "type": "address"
        }
      ],
      "name": "getBalanceOfUser",
      "outputs": [
        {
          "internalType": "uint256",
          "name": "",
          "type": "uint256"
        }
      ],
      "stateMutability": "view",
      "type": "function"
    },
    {
      "inputs": [
        {
          "internalType": "address",
          "name": "_user",
          "type": "address"
        }
      ],
      "name": "getLastDepositTimestamp",
      "outputs": [
        {
          "internalType": "uint256",
          "name": "",
          "type": "uint256"
        }
      ],
      "stateMutability": "view",
      "type": "function"
    },
    {
      "inputs": [
        {
          "internalType": "uint256",
          "name": "_amount",
          "type": "uint256"
        }
      ],
      "name": "withdraw",
      "outputs": [],
      "stateMutability": "nonpayable",
      "type": "function"
    }
  ],
  "bytecode": "0x6080604052348015600e575f5ffd5b5061033f8061001c5f395ff3fe60806040526004361061003e575f3560e01c80632e1a7d4d1461004257806345909a6f146100635780638ba591e9146100a9578063d0e30db0146100e0575b5f5ffd5b34801561004d575f5ffd5b5061006161005c366004610285565b6100e8565b005b34801561006e575f5ffd5b5061009761007d36600461029c565b6001600160a01b03165f9081526020819052604090205490565b60405190815260200160405180910390f35b3480156100b4575f5ffd5b506100976100c336600461029c565b6001600160a01b03165f9081526020819052604090206001015490565b6100616101f9565b5f811161010857604051631e1d0ab560e01b815260040160405180910390fd5b335f9081526020819052604090205481111561013757604051631036b5ad60e31b815260040160405180910390fd5b335f90815260208190526040812080548392906101559084906102dd565b90915550506040515f90339083908381818185875af1925050503d805f8114610199576040519150601f19603f3d011682016040523d82523d5f602084013e61019e565b606091505b50509050806101c0576040516312171d8360e31b815260040160405180910390fd5b60405182815233907ffba1a14355f33124cb609811a7c716125808676a622db67e888ac6dff68dbfea9060200160405180910390a25050565b5f341161021957604051631e1d0ab560e01b815260040160405180910390fd5b335f90815260208190526040812080543492906102379084906102f6565b9091555050335f81815260208181526040918290204260019091015590513481527f4de483450f36dd8489373cf9166b2260f09ae72422d836e12fd9565cec1cb91e910160405180910390a2565b5f60208284031215610295575f5ffd5b5035919050565b5f602082840312156102ac575f5ffd5b81356001600160a01b03811681146102c2575f5ffd5b9392505050565b634e487b7160e01b5f52601160045260245ffd5b818103818111156102f0576102f06102c9565b92915050565b808201808211156102f0576102f06102c956fea26469706673582212206d0c971d51314a0d150f25c3fed0fd95be8242a2a99fc889464d31353cdbaae864736f6c634300081c0033",
  "linkReferences": {},
  "deployedLinkReferences": {},
  "immutableReferences": {},
  "inputSourceName": "project/contracts/Bank.sol",
  "buildInfoId": "solc-0_8_28-6962de52520232a51acb05ce96cc72bd8e440c91"
}